:020000040800F2
:10000000484800200903000853260008472100083B
:1000100051260008010E00085129000800000000C8
:10002000000000000000000000000000490200087D
:10003000110F000800000000A50200085D2600085E
:1000400023030008230300082303000823030008F8
:1000500023030008230300082303000823030008E8
:1000600023030008230300082303000823030008D8
:1000700023030008230300082303000823030008C8
:1000800023030008230300082303000800000000E6
:100090000000000000000000000000002303000832
:1000A000230300082927000823030008230300086E
:1000B0002303000823030008230300082303000888
:1000C0002303000823030008230300082303000878
:1000D0002303000823030008230300080000000096
:1000E0002303000823030008230300080000000086
:1000F00000000000000000000000000023030008D2
:100100000000000023030008230300082303000865
:1001100000000000000000000000000000000000DF
:100120002303000823030008230300082303000817
:100130002303000800000000000000000000000091
:100140000000000000000000000000002303000881
:1001500023030008230300082303000823030008E7
:100160002303000823030008000000000000000033
:10017000000000000000000000000000000000007F
:100180000000000023030008000000000000000041
:10019000230300082303000800F002F800F044F8ED
:1001A0000AA090E8000C82448344AAF10107DA45D2
:1001B00001D100F039F8AFF2090EBAE80F0013F0E0
:1001C000010F18BFFB1A43F001031847D036000097
:1001D000F0360000103A24BF78C878C1FAD8520728
:1001E00024BF30C830C144BF04680C6070470000B1
:1001F0000023002400250026103A28BF78C1FBD830
:10020000520728BF30C148BF0B6070471FB503F0CD
:1002100019FB9DE8030000F0C5FB00F0A3F91FBD2A
:1002200010B500F008FA10BD00F06BFA1146FFF7A8
:10023000EDFF02F0F1FC00F083FB03B4FFF7F0FFE9
:1002400003BC00F041FD00002C4B19680868B0E8C1
:10025000F04F80F30988BFF36F8F4FF0000080F3F9
:10026000118870470000000008480068006880F3AB
:1002700008884FF0000080F3148862B661B6BFF3BF
:100280004F8FBFF36F8F00DF00BF00BF08ED00E0AE
:10029000DFF80C00016841F470010160704700BF95
:1002A00088ED00E0EFF30980BFF36F8F134B1A68FE
:1002B0001EF0100F08BF20ED108A20E9F04F1060EB
:1002C00009B44FF0500080F31188BFF34F8FBFF394
:1002D0006F8F03F0EFF84FF0000080F3118809BC36
:1002E00019680868B0E8F04F1EF0100F08BFB0ECB6
:1002F000108A80F30988BFF36F8F70471C000020BD
:10030000EFF305807047000009488047094800471F
:10031000FEE7FEE7FEE7FEE7FEE7FEE7FEE7FEE7B5
:10032000FEE7FEE704480549054A064B7047000012
:100330001927000899010008484200204848002079
:10034000484400204844002053EA020C00F0698031
:100350002DE9F04B4FF00006002B1FBFB3FA83F5D9
:1003600003FA05F424FA05F65E4012BF1643B2FA0A
:1003700082F502FA05F4C5F120051EBF22FA05FC3C
:1003800044EA0C04203556EA044C4FEA144418BFE2
:10039000641C4FF000084FF00009904271EB030C11
:1003A00039D3002919BFB1FA81F701FA07F6B0FA7B
:1003B00080F700FA07F6C7F120071EBF20FA07FCF6
:1003C00046EA0C062037B6FBF4FCA7EB0507103F06
:1003D00007F01F0BCBF120060CFA0BFB2CFA06F6EC
:1003E00044BFB3460026202FA4BF5E464FF0000B4B
:1003F0005BEA060C08BF4FF0010B19EB0B09ABFBD6
:10040000027C48EB0608C01B06FB02CC0BFB03CCAE
:1004100071EB0C01C1E70B46024641464846BDE878
:10042000F08B13B54FF000004FF00001AFF30080E8
:10043000BDE81C40704700000FB4044910B503AA82
:10044000029800F061F810BC5DF814FB40410020F8
:1004500010B5203AC0F00B80B1E81850203AA0E85F
:100460001850B1E81850A0E81850BFF4F5AF5FEA93
:10047000027C24BFB1E81850A0E8185044BF18C946
:1004800018C0BDE810405FEA827C24BF51F8043BED
:1004900040F8043B08BF7047D20728BF31F8023B41
:1004A00048BF11F8012B28BF20F8023B48BF00F8D5
:1004B000012B70474FF0000200B513469446964654
:1004C000203922BFA0E80C50A0E80C50B1F1200167
:1004D000BFF4F7AF090728BFA0E80C5048BF0CC015
:1004E0005DF804EB890028BF40F8042B08BF704773
:1004F00048BF20F8022B11F0804F18BF00F8012BE5
:100500007047704770477047074B70B50D467B4486
:1005100000F011F80446284600F020F810B14FF022
:10052000FF3070BD204670BD6324000001694A1C85
:1005300002610878704700B58FB0CDE90131002124
:10054000059105497944CDE903101146684600F04C
:1005500024F90FB000BD0000E5FFFFFF007B00F0B5
:100560008000704710B542485421FFF7A3FF41486F
:100570005421FFF79FFF40485421FFF79BFF3F495D
:100580003B483C4A3F4B08603D490A603A49196084
:10059000531C0365481C1065012008653B48344A1C
:1005A00039A1784400F030F920B9384878440A3845
:1005B00000F0CFF937482F4A35A1784400F024F9EC
:1005C00020B9344878440A3800F0C3F932482A4A3E
:1005D0002FA1784400F018F920B92F4878440A3840
:1005E00000F0B7F940232248DC000021224600F049
:1005F000E8F820B125487844543800F0AAF91D489D
:1006000022464023002100F0DCF820B12148784444
:10061000543800F09EF9184822461023002100F0BB
:10062000D0F8002806D01C487844BDE81040563861
:1006300000F08FB910BD104870B5006D20F00104B6
:100640000B4800F057F90B4800F054F90A4800F045
:1006500051F909E0206D20F00105204600F04AF92B
:10066000204600F073F82C46002CF3D170BD00003A
:10067000EC400020404100209441002084000020F4
:10068000880000208C00002072000000DE32000094
:1006900077000000CA320000B63200000EB5CDE986
:1006A000000100F0F1FA029069460120ABBE0EBDD8
:1006B00008B5694600900220ABBE08BD1FB58DE8A5
:1006C000070069460520ABBE04B010BD1FB58DE81C
:1006D0000F0069460620ABBEF6E708B569460090F4
:1006E0000920ABBE08BD1CB5CDE9000169460A2052
:1006F000ABBE1CBD704708B5694600900C20ABBE70
:1007000008BD754600F02CF9AE4605006946534613
:1007100020F00700854618B020B5FFF703FEBDE8BE
:1007200020404FF000064FF000074FF000084FF058
:10073000000B21F00701AC46ACE8C009ACE8C009E9
:10074000ACE8C009ACE8C0098D46704770B50446F6
:10075000051F00F00BF90068002C14BF446870BD41
:10076000002C18BFAC423CBF20466468F8D3016837
:100770000A18AA4218BF456003D12A6805461144E9
:10078000016028684119A1421CBF6C6070BD61689E
:10079000696021680844286070BD2DE9F041064673
:1007A0000024D6E90170F5688046304603E04146F2
:1007B000B847641C3046A8470028F8D12046BDE859
:1007C000F08170B5C468A50713D0650211D4B2F5E5
:1007D000807F09D0B2F5007F06D0B2F5806F08D1D6
:1007E000012300F1240106E05D1E6FF07F46B54253
:1007F00001D3012070BD0161C361416024F47061C7
:100800001143C160002070BD2DE9F0410C46074640
:100810001646104600F06EF82078611C61280AD058
:10082000722802D077283CD102E00125002405E09F
:100830000225042402E0082448F2020511F8010B05
:100840002B2806D0622809D011F8010C74280AD090
:100850000BE045F0030544F00204EFE745F0040522
:1008600044F00104EAE744F0100438462146FFF75B
:1008700015FF411C15D00021316171604FF40071EA
:10088000F560F1617061200704D530460222002135
:1008900000F0E6F8306D40F0010030653046BDE80C
:1008A000F0810020FBE72DE9F0410D460646104C93
:1008B000206DC10704D0410804D020F00104F7E7FF
:1008C00022460EE0542000F09CF807000ED0206D68
:1008D00047F001010843542120653846FFF7EAFD3F
:1008E0003A4629463046BDE8F0418DE70020D6E77C
:1008F000EC4000202DE9F04704464FF000094FF08E
:10090000FF37C568D4E90486A80707D0204600F061
:1009100057F93046FFF7CCFE002802DA3846BDE82A
:10092000F087280502D54046FFF710FF4C212046EE
:10093000FFF7C0FD206D20F0010020654846EEE77E
:1009400010B50446AFF300802046BDE81040FFF725
:1009500074BC10B500F07EF9BDE8104000F074B929
:1009600000487047E8410020704700000048704789
:10097000F0410020704770477047704738B5044613
:100980000A4600206946AFF30080002808BF38BD42
:1009900002460099204600F0A4F9012038BD01204C
:1009A00000F0F3B9F8B5AFF30080054600200C461F
:1009B000102000BF0646A819A0420DD9324669464C
:1009C0000020AFF30080070008BF00F0DEF90098B8
:1009D000A04218BF0546C419FFF7C8FF05600746C7
:1009E000F01D20F007004619284600F073F9B442C4
:1009F00008BFF8BDA21B31463868BDE8F84000F0DA
:100A000070B970B50646FFF7B1FF056806F10B0037
:100A100020F00704B4429CBF002070BD2B466A68DA
:100A2000BAB11068A04210D304F1080188423CBF5B
:100A30005068586007D35168101941601168091B4C
:100A4000016058601460101D70BD13465268002A82
:100A5000E7D121462846FFF791FF0028DED170BD7F
:100A60002DE9F041044616460D464769007B800794
:100A70002ED03846FFF731FE50BB3EB3012E02D0D8
:100A8000022E25D104E0204600F045F905441DE082
:100A90003846FFF730FEE168002841F01001E160C0
:100AA00005DA204600F058F80120BDE8F081C903BE
:100AB0000BD56268E16A914200D81146A2691144DF
:100AC0002269891A814200DD08460544002D01DAB9
:100AD0000220EAE7E16A6068E268814206D2910397
:100AE000E06203D522F4003141F01002A66900272C
:100AF000AE4213DCE16A814201D90B4600E00346B5
:100B000003EB060C2369ACEB030CAC4506DD81421C
:100B100001D98C4600E084469C4505D1A76027603A
:100B200042F02000A5620DE0AD1BE669AE1B8142DC
:100B3000A66000D90846C01A281A206058196060BB
:100B400022F0200003490840E060002084F848704B
:100B5000ABE70000BFCFD7FFC16821F4001141F01F
:100B60008001C16000218160016070472DE9F0477C
:100B7000814614460E464FF0FF383248D568576913
:100B8000054209D03846A169FFF7ADFD002811DB09
:100B90002C48C0430540E5602B463246494638465E
:100BA000FFF78CFDA16920F00042B21A1144002821
:100BB000A16103D02046FFF7CFFF4046BDE8F08794
:100BC00070B504460569C06A6168884200D8084665
:100BD000E16821F42011E160C90312D5A84208D0D0
:100BE0002246411B2846FFF7C1FF10B14FF0FF30EE
:100BF00070BD0020E562C4E90150E06820F4803057
:100C0000E060002070BD10B50446C06820F02000F0
:100C1000E060A16AA06988420DD02046FFF7D0FFAE
:100C2000E06820F4405040F01000E060A06AA0614D
:100C30002069E062606044F24001E0688843E0605F
:100C400010BD000010000200002801D000F03CB8E8
:100C50007047000010B5014602A000F07DF80120A9
:100C600010BD000053494752545245443A20526542
:100C70006469726563743A2063616E2774206F70D3
:100C8000656E3A200000000010B5431C02E010F829
:100C9000011B71B18107FAD14FF0013202C88C1AE1
:100CA0008C4314EAC211F9D0C01A0A0603D0C01E40
:100CB00010BDC01A10BD0A0401D0801E10BD09026B
:100CC000FCD0401E10BD000001491820ABBEFEE75D
:100CD0002600020000210160C0E9011070471020C9
:100CE0007047034640688C46002818BF88423CBFC6
:100CF00003464068F8D318681844884207D00CF1BE
:100D0000030020F00700001D411A521A0146081D79
:100D10000A60FFF71BBD10B50146C268900703D0FB
:100D2000900607D5886A0AE000F03EF801210160CC
:100D3000881E10BD8B69486818440B69C01A91F869
:100D400048301BB191F84910401A10BD1103FCD571
:100D50000028FADD401E10BD70B505460C460A207D
:100D600000E06D1C00F018F835B128780028F8D1A3
:100D700002E0641C00F010F814B120780028F8D1CB
:100D8000BDE870400A2000F007B810B500F010F878
:100D9000BDE81040FFF758BF08B569468DF8000060
:100DA0000320ABBE08BD000000487047E8410020AA
:100DB00010B5012805D0002103A0FFF7CDFF0120C9
:100DC00010BD09A1F8E7000053494752544D454D65
:100DD0003A204F7574206F662068656170206D65DC
:100DE0006D6F7279000000003A2048656170206DD7
:100DF000656D6F727920636F7272757074656400CF
:100E0000FEE700000A2839D890B31D4924220B2898
:100E10000A7033D2DFE800F032060A0E12161A1EEC
:100E200022272D00052048710620704709204872AE
:100E30000A2070470D2048730E2070471120487417
:100E400012207047152048751620704719204876E3
:100E50001A2070471D2048771E207047212081F8F6
:100E6000210022207047252081F825002620704788
:100E700004E0292081F829002A20F8E70020F6E77D
:100E8000C040002001B50A282DED020B12D8002821
:100E900010D00B280ED2DFE800F00D06080E10125D
:100EA0001416181A1C00012200E005220A4968469F
:100EB00000F031F80EBD0922F8E70D22F6E7112205
:100EC000F4E71522F2E71922F0E71D22EEE72122CE
:100ED000ECE72522EAE70000C040002010B5012021
:100EE000FFF7D0FF0220B0EE600AFFF7CBFF032030
:100EF000B0EE410AFFF7C6FF0320FFF783FF01466C
:100F0000BDE81040014802F09FB90000C040002039
:100F1000704772B6FEE703788B54114443784B70E8
:100F200082788A70C078C8707047000070B5044637
:100F300000F00CF90546601C02D004480078044417
:100F400000F004F9401BA042FAD370BD0C00002051
:100F50002DE9F84FDFF8B8A10022012403254FF056
:100F60000F090AF1040BAAF1040E00BF0B6804FA82
:100F700002F63340B34273D10F7907F00307012F14
:100F800001D0022F16D187684FEA420805FA08FC03
:100F900027EA0C07D1F80CC00CFA08FC4CEA070C45
:100FA000C0F808C04768B7430E79C6F300169640EC
:100FB0003E4346600E79F643B6070DD0C76856002B
:100FC00005FA06FC27EA0C07D1F808C00CFA06FC63
:100FD0004CEA070CC0F80CC00E7906F00306022E8E
:100FE00010D1D60800EB8608D8F8206057074FEAE2
:100FF000D76C09FA0CF7BE430F6907FA0CF73743B1
:10100000C8F8207006684FEA420C05FA0CF7BE4398
:101010000F7907F0030707FA0CF7374307604E68AC
:1010200016F4403F6DD03B4E376847F48047376039
:10103000366822F0030706F480460096364E07EB2A
:10104000060CDCF8086897073F0F09FA07F826EA4C
:101050000806DFF8C880404503D14FF000081EE0C5
:101060004FE0DFF8BC80404502D14FF0010816E0A8
:10107000DFF8B080404502D14FF002080FE0DFF802
:10108000A880404502D14FF0030808E0DFF89C80BB
:10109000404502D14FF0040801E04FF0070808FA7C
:1010A00007F848EA0608CCF80888DAF800605746DE
:1010B000D1F804C09E435FEACC2C00D51E433E60AD
:1010C000DBF800605F46D1F804C09E435FEA8C2CD9
:1010D00000D51E433E60DEF800607746D1F804C0BC
:1010E0009E435FEA8C3C00D51E433E60084F083F9C
:1010F0003E68D1F804C09E435FEACC3C00D51E4355
:101100003E60521C102AFFF431AFBDE8F88F00009A
:10111000083C0140443802400030014000000240D9
:101120000004024000080240000C0240001002408F
:10113000426921EA02030A4043EA024181617047A1
:101140000AB1816170470904FBE70000014880682B
:10115000704700000C00002070B5040025D094F802
:101160003D00002520B984F83C50204600F04CFAA0
:10117000242084F83D002068016821F0010101600D
:101180002068016841F4004101602068016821F491
:101190000041016000F0ECFB4D4A6168914201D8CA
:1011A0004C4900E04C49884201D2012070BD4B49B6
:1011B0002368B0FBF1F15E6826F03F060E435E60E7
:1011C0006368934206D94FF4967359434FF47A7388
:1011D000B1FBF3F12368491C1E6A26F03F06314338
:1011E00019626168914210D84900401EB0FBF1F2CB
:1011F000521CC2F30B02042A01D2042022E0B0FBED
:10120000F1F0401CC0F30B001CE0A268F2B301EB4C
:10121000C10303EB0116431EB3FBF6F35B1C43F45F
:1012200080431B0549D092B301EBC10202EB0111CF
:10123000401EB0FBF1F0401CC0F30B0040F48040B6
:1012400040F400402168CA694CF6FF739A4310438A
:10125000C861D4E9071001432068026822F0C00287
:1012600011430160D4E9030101432068826848F218
:10127000FF339A4311438160D4E905010843216893
:10128000CA6822F0FF021043C86001E00EE016E0D9
:101290002068016841F0010101602564202084F884
:1012A0003D00256384F83E50002070BD01EB4106EF
:1012B000431EB3FBF6F35B1CB3E70120C2E701EB6F
:1012C0004101401EB0FBF1F0401CC0F30B00B7E73A
:1012D000A086010080841E0000093D0040420F00EE
:1012E0002DE9FF4F83B09A46DDE9119793460446F6
:1012F000DDF84080FFF72AFF054694F83D002028DE
:1013000070D11923012271492046009501F02CF873
:101310000028F5D194F83C00012863D0012084F81E
:101320003C0020680168C90703D1016841F0010150
:1013300001602068016821F400610160222084F8C6
:101340003D00402084F83E0000262664C4F8248036
:10135000A4F82A90608D20855D48E062CDE9007593
:1013600053465A462046049900F006FF00287CD1D7
:10137000208DD0B1012821D00228206824D04169D5
:1013800080690090208D032869D801282BD051490D
:1013900002283B464FF00002009559D0884620466F
:1013A00000F0E2FF002860D13CE0206841698169DB
:1013B0000091016841F40071016077E020680168E4
:1013C00021F480610160F0E7016821F4806101602F
:1013D0002068016841F4006101602068416980690A
:1013E000009063E06FE02A463946204601F03BF862
:1013F00098BB20680069616A08704EE02068016847
:1014000041F40071016020680069616A0870606AD7
:10141000401C6062218D491E2185618D491E6185B8
:10142000216838E02068016821F48061016020684B
:101430000069616A0870606A401C6062208D401E0D
:101440002085608D401E60853B4600224146009508
:10145000204600F089FF00B9D0E706E0FFE72A4602
:101460003946204600F0FFFF18B1012007B0BDE863
:10147000F08F20680069616A0870606A401C6062D1
:10148000218D491E2185618D491E618521684A692A
:10149000D24352070AD409690170606A401C606235
:1014A000208D401E2085608D401E6085208D002887
:1014B0007FF468AF202084F83D0084F83E6084F813
:1014C0003C600020D2E70220D0E7000002001000BC
:1014D0000000FFFF040001002DE9FF4F83B09A4692
:1014E000DDE9119793460446DDF84080FFF72EFEB4
:1014F000054694F83D0020287FD119230122404958
:101500002046009500F030FF002876D194F83C008A
:10151000012872D0012084F83C0020680168C907C6
:1015200003D1016841F0010101602068016821F4E4
:1015300000610160212084F83D00402084F83E00D5
:1015400000262664C4F82480A4F82A90608D2085A3
:101550002C48E062CDE9007553465A46204604996E
:1015600000F088FE70B930E02A463946204600F087
:10157000ADFF58B1206C042804D12068016841F403
:1015800000710160012007B0BDE8F08F606A21683A
:1015900000780861606A401C6062218D491E89B232
:1015A0002185628D521E628522685369DB435B0789
:1015B0000BD469B100781061606A401C6062208DB4
:1015C000401E2085608D401E6085208D0028CBD177
:1015D0002A463946204600F0A1FE0028CAD154F818
:1015E0003D0B016841F400710160202004F81E09E0
:1015F000E67766770020C6E7FFE70220C3E7000032
:10160000020010000000FFFF10B586B00446142150
:101610006846FEF74FFF14492068884221D11348DD
:101620000021026842F002020260006800F002003D
:1016300005904FF4407000901220CDE90101032085
:1016400003900420049069460948FFF781FC07488D
:101650001030016841F400110160006800F40010CE
:10166000059006B010BD0000005400403038024024
:10167000000402400248816802781144816070478A
:101680000C0000200B4810B5016841F400710160A6
:10169000016841F480610160016841F4807101607A
:1016A000032000F099F80F2000F006F800F04AF847
:1016B000002010BD003C024030B505461C4887B0F4
:1016C0000024016841F001010160006806A900F0F2
:1016D0000100009001A800F02BF900F059F915491C
:1016E000154AB0FBF1F11548491E026040F2E7329D
:1016F000C0E90324C0E90114846100F041FB040047
:1017000012D10E4800F06AFB04000DD1192000F040
:1017100035F8102D07D200222946192000F03CF898
:101720000748056000E0012407B0204630BD0000F6
:101730004438024040420F0000000140880300206E
:10174000100000200C4882B0016841F48041016023
:10175000006800F4804000900748001F016841F0D5
:10176000805101600068002200F0805000900F213D
:10177000901E02B000F010B844380240002809DB87
:1017800000F01F02012191404009800000F1E0209B
:10179000C0F8001170470000F0B40E4B1B680C46F7
:1017A000C3F30223C3F10705042D00D90425191D35
:1017B000072901D2002300E0DB1E012606FA05F10D
:1017C000491E214099409E40761E16403143F0BC90
:1017D00001F0BFB80CED00E0064900F00702086810
:1017E0004FF6FF03184040EA0220034A1043086006
:1017F000704700000CED00E00000FA052DE9F0470D
:101800000E46050065D0DFF81481D8F80000F7B265
:1018100000F00700B04207D288F80070D8F8000046
:1018200000F00700B04254D128683D4C810712D522
:10183000400703D5206840F4E05020602878000776
:1018400003D5206840F4604020602068A96820F03B
:10185000F000084320602878C0072DD03049686820
:101860000839012812D0022813D0032811D00968A2
:10187000890700292DDA216821F003010143216045
:10188000FFF764FC814641F2883A0EE0096889035B
:10189000EFE709688901ECE7FFF758FCA0EB0901C5
:1018A000514502D90320BDE8F0872068696800F03F
:1018B0000C00B0EB810FEFD1D8F80010404601F0DA
:1018C0000701B14207D90770006800F00700B04275
:1018D00001D00120E7E72878400705D52068E968AE
:1018E00020F4E050084320602878000706D52068DF
:1018F000296920F4604040EAC100206000F058F8F7
:101900002168084AC1F30311515CC84006490860C8
:1019100006480068FFF7D0FE0020C4E7003C024004
:10192000083802406C380008180000201000002021
:101930000F2202600C4A136803F00303436013682C
:1019400003F0F0038360136803F4E053C36012688C
:101950004FF4E05303EAD20202610448006800F049
:10196000070008607047000008380240003C024051
:101970000448054900680968044AC1F38221515CA2
:10198000C840704718000020083802407C38000822
:101990000448054900680968044AC1F34231515CB2
:1019A000C840704718000020083802407C38000802
:1019B000154810B5006810F00C02144813D04110FF
:1019C000042A0FD0082A0ED10F4C241F2268236846
:1019D00002F03F025B0207D52068C0F38810A0FB2D
:1019E000010106E0084610BD2168C1F38811A1FB82
:1019F00000010023FEF7A8FC2168C1F30141491C46
:101A00004900B0FBF1F010BD083802400024F4009A
:101A10002DE9F84F04006ED02078DFF84C93C00712
:101A2000A9F104054AD009F104000168C1F381015C
:101A3000012908D00068C0F3810002280AD1D9F832
:101A40000000400206D52868800337D5606800286A
:101A5000E1D033E06068B0F5803F10D0B0F5A02F42
:101A6000286810D020F480302860286820F4802076
:101A700028606068A8B1FFF769FB06460DE028689A
:101A800040F48030F4E740F480202860F7E700BF9E
:101A9000FFF75CFB801B642873D828688003F7D5A8
:101AA0000CE0FFF753FB064605E000BFFFF74EFBD7
:101AB000801B6428F0D828688003F7D42078DFF8EA
:101AC000AC8280074FF0000A3ED5A748001D016890
:101AD00011F00C0F08D00068C0F3810002280BD170
:101AE000D9F80000400207D42868800716D5E068BE
:101AF000012800D112E033E1E068B8B10120C8F854
:101B00000000FFF723FB064605E000BFFFF71EFBC2
:101B1000801B0228C0D828688007F7D5286821696B
:101B200020F0F80040EAC10028600DE0C8F800A0ED
:101B3000FFF70CFB064604E0FFF708FB801B0228BA
:101B40001FD828688007F7D42078000722D5864F51
:101B500087486169703771B101210160FFF7F6FABA
:101B6000064604E0FFF7F2FA801B022809D838681D
:101B70008007F7D50EE0C0F800A0FFF7E7FA0646A9
:101B800005E082E0FFF7E2FA801B02287DD8386882
:101B90008007F7D42078400768D5DFF8CCB100275C
:101BA0000BF13C0BDBF80000C0000BD4DBF800109D
:101BB00041F08051CBF80010DBF80000012700F065
:101BC000805000906B4E3068C00510D4306840F4EF
:101BD00080703060FFF7BAFA009005E0FFF7B6FAC0
:101BE0000099401A022850D83068C005F6D55E4EDC
:101BF000A0686C3601280FD00528306810D020F07E
:101C000001003060306820F004003060A068B8B196
:101C1000FFF79CFA00900FE0306840F00100F4E715
:101C200040F004003060F7E7FFF790FA0099411A9E
:101C300041F28830814266D830688007F4D50EE0E2
:101C4000FFF784FA009007E0FFF780FA0099411A45
:101C500041F28830814256D830688007F4D42FB1E1
:101C6000DBF8001021F08051CBF80010A069C8B358
:101C70003D49091D0968C1F3810102294AD00228A2
:101C8000504607D0C8F8600000E03CE0FFF75EFA7D
:101C900004463BE04746C8F86000FFF757FA06469F
:101CA00005E000BFFFF752FA801B02282BD82868F6
:101CB0008001F7D4D4E907010843A16A2E4A4908F4
:101CC00002EB0141626A41EA8211084394F82C1048
:101CD00040EA0161C9F8001001203866FFF736FAC2
:101CE000044606E03EE000BFFFF730FA001B022882
:101CF00009D828688001F7D534E000BFFFF726FA3D
:101D0000001B022802D90320BDE8F88F2868800153
:101D1000F4D427E00128F7D0D9F80000E26900F4F4
:101D2000800191421CD1226A00F03F01914217D1FB
:101D300047F6C071626A0140B1EB821F10D1A26AFE
:101D40004FF0FF3300F4403103EB5202B1EB024F8E
:101D500006D194F82C1000F07060B0EB016F01D048
:101D60000120D1E70020CFE70438024000004742BD
:101D7000800E4742007000400000FFFF7047704730
:101D800010B5040003D094F83D0010B107E0012025
:101D900010BD002084F83C00204600F01EF8022010
:101DA00084F83D00211D206800F0C4FC012084F867
:101DB000460084F83E0084F83F0084F8400084F830
:101DC000410084F8420084F8430084F8440084F819
:101DD000450084F83D00002010BD704790F83D108C
:101DE000012901D001207047022180F83D100168CF
:101DF000CA6842F00102CA6000680E4988420ED0EB
:101E0000B0F1804F0BD00C49884208D00B49884272
:101E100005D00B49884202D00A49884204D1816822
:101E200001F00701062903D0016841F001010160BA
:101E300000207047000001400004004000080040FE
:101E4000000C004000400140704770B50446006837
:101E500001694FF00005C943890715D4C168C9431A
:101E6000890711D4E91E016101202077206880696B
:101E70008007204602D0FFF7E7FF04E000F098F863
:101E8000204600F096F8257720680169C943490784
:101E900017D4C168C943490713D46FF00401016125
:101EA000022020772068806910F4407F204602D00D
:101EB000FFF7CAFF04E000F07BF8204600F079F855
:101EC000257720680169C943090716D4C168C94349
:101ED000090712D46FF008010161042020772068FF
:101EE000C0698007204602D0FFF7AEFF04E000F093
:101EF0005FF8204600F05DF8257720680169C94346
:101F0000C90617D4C168C943C90613D46FF01001BC
:101F10000161082020772068C06910F4407F2046C6
:101F200002D0FFF791FF04E000F042F8204600F0F5
:101F300040F8257720680169C943C90708D1C168FD
:101F4000C943C90704D1891E0161204600F032F857
:101F500020680169C943090609D4C168C943090653
:101F600005D46FF0800101612046FFF707FF20686C
:101F70000169C943490609D4C168C943490605D462
:101F80006FF040010161204600F01EF820680169F1
:101F9000C94389060BD4C168C943890607D46FF0C9
:101FA000200101612046BDE87040FFF7E8BE70BD2A
:101FB0007047704700680349884201D1FFF75ABB58
:101FC0007047000000000140704770B5040004D065
:101FD00094F83D00002510B106E0012070BD84F8A2
:101FE0003C50204600F022F8242084F83D00206870
:101FF000C16821F40051C160204600F0E7FB206871
:10200000016921F4904101612068416921F02A01B0
:1020100041612068C16841F40051C16025642020FD
:1020200084F83D0084F83E00002070BD10B586B0F5
:10203000044614216846FEF73DFA13492068884299
:1020400020D112480021026842F400320260006888
:1020500000F4003005900D481038026842F001028B
:102060000260006800F0010005900C200090022042
:10207000CDE901010320039007200490694604483C
:10208000FEF766FF06B010BD004400404038024035
:10209000000002402DE9F843044690F83D001F4639
:1020A00016460D4620284CD1C5B1BEB194F83C006F
:1020B000012846D0012084F83C004FF00008C4F805
:1020C0004080212084F83D00FFF740F8A684814637
:1020D000E684A068B0F5805F03D004E00120BDE88D
:1020E000F883206928B12E465FF0000584F83C8013
:1020F0000EE00026FAE78021204600F0EDFBA0B9B3
:10210000AEB116F8010B21684860E08C401EE084F7
:10211000E08C4B464FF0000200970028EBD14FF0C7
:102120004001204600F0D8FB30B10320D7E735F856
:10213000020BC0F30800E6E7202084F83D000020F1
:10214000CDE70220CBE7FEE701684A69D24352059A
:102150000FD46FF480624A61002140F8301F2022C2
:1021600042738173026942F004020261017301202B
:1021700070470020704700002DE9F84F04460068C2
:1021800089460B9D01689846174641F480610160BD
:102190002068016841F48071016000954FF0011BD7
:1021A0000022594620460A9B00F0DEF84FF4007AE0
:1021B00040B120680068C00501D5C4F840A00320E4
:1021C000BDE8F88F216809F0FE0008612B46284918
:1021D00020460A9A00F0FCF8F0BB2068416980694B
:1021E00000902A4620460A9900F070F940B1206C10
:1021F00004283AD12068016841F40071016034E09C
:10220000FEB2B8F1010F09D02168380A08612A46E8
:1022100020460A9900F05AF90028E8D120680661A2
:102220002A4620460A9900F051F90028DFD120689B
:10223000016841F4807101600095002259462046F2
:102240000A9B00F091F80028B3D1216809F0FF0043
:1022500040F00100086100E007E02B4604492046F9
:102260000A9A00F0B5F80028AAD00120A8E70000DB
:10227000020001002DE9F843044600680D46DDE93F
:10228000089701689846164641F4807101604B46F4
:1022900000224FF001112046009700F065F848B188
:1022A00020680068C00502D54FF400702064032048
:1022B000BDE8F883216805F0FE0008613B464A4608
:1022C0001549204600F084F888B920684169806982
:1022D00000903A464946204600F0F8F848B1206C94
:1022E000042804D12068016841F4007101600120D4
:1022F000DEE7F5B2B8F1010F09D02168300A0861B4
:102300003A464946204600F0E1F80028E7D1206827
:1023100005610020CCE700000200010070B5164600
:102320000D4604460DE02046FFF70EFF08B10120E0
:1023300070BD681C05D0FEF709FF801BA84207D8B6
:1023400035B120684069C0434007ECD4002070BD1F
:10235000002044F8300F20216173A073216941F0FF
:10236000200121612073E2E72DE9F0471E469046E7
:102370000D460446C1F30747DDF8209008E0701CC5
:1023800006D0FEF7E3FEA0EB0900B0420FD876B10D
:102390002068012F18D0806925EA00000004000C95
:1023A00014D000214145EAD00020BDE8F08700208C
:1023B00044F8300F20216173A073216941F020019E
:1023C000216120730120F0E74069E5E70121E9E799
:1023D0002DE9F0479A4691460E46044600254FF0F7
:1023E0002008C1F3074725E020684069C043400545
:1023F00014D42068016841F40071016021686FF411
:1024000080604861256384F83D8084F83E50206CEC
:1024100040F00400206484F83C501FE0B9F1FF3F15
:1024200008D0FEF793FEA0EB0A0149450CD8B9F19C
:10243000000F09D02068012F13D0806926EA000020
:102440000004000C0BD0CFE744F8305F84F80D8017
:10245000A573206940F02000206125730120BDE8AC
:10246000F0874069EAE72DE9F041002590460E46E5
:102470000446202717E04069C043C0060CD454F836
:10248000301B6FF01000486144F810596777A5774A
:10249000206A2062257717E0FEF758FEA0EB0800BF
:1024A000B04208D83EB120684169C9434906E2D428
:1024B0000020BDE8F08144F8305F6773A5732069A0
:1024C00040F02000206125730120F2E770B5164628
:1024D0000D4604460DE02046FFF736FE08B1012008
:1024E00070BD681C05D0FEF731FE801BA84207D8DE
:1024F00035B120684069C0430006ECD4002070BDAF
:10250000002044F8300F20216173A073216941F04D
:10251000200121612073E2E700B587B01C22064943
:102520006846FDF795FF0021684600F021FC03494D
:10253000086007B000BD0000503800080800002007
:1025400030B587B014216846FDF7B4FF1F4800245A
:10255000016841F004010160016801F00401059186
:10256000016841F080010160016801F0800105917E
:10257000016841F001010160016801F0010105916C
:10258000016841F0020101600068114D00F0020095
:102590000590002220212846FEF7D2FD4FF400507E
:1025A00000904FF40410CDE9010469460948FEF794
:1025B000CFFC202000900120CDE901046946284687
:1025C0000394FEF7C5FC07B030BD00003038024070
:1025D00000000240000802400D4810B50B490160A0
:1025E0000C49416000214FF480428160C0E9031230
:1025F00041618161C1610162FEF7AEFD002803D037
:10260000BDE81040FEF785BC10BD0000005400403E
:10261000F0020020801A06000C4810B50A4901603B
:102620004FF4E1314160002181600C22C160C0E9BA
:1026300004128161C161FFF7C8FC002803D0BDE826
:102640001040FEF766BC10BD00440040440300206B
:10265000FEE7FEE7012000F07FFBFBE710B550200E
:1026600080F31188BFF34F8FBFF36F8F01F022F813
:1026700018B104494FF080500860002080F31188A1
:1026800010BD000004ED00E030B593B03021684685
:10269000FDF710FF14210CA8FDF70CFF1C480024C7
:1026A000016841F080510160006800F08050119095
:1026B0001848016841F4404101600068022500F4B7
:1026C0004040119001200390102000950695049041
:1026D000CDE907404FF4C870099004200A900B9090
:1026E0006846FFF795F908B172B6FEE70F20CDE90D
:1026F0000C054FF48050CDE90E4003210CA8109436
:10270000FFF77CF8002801D072B6FEE713B030BDA9
:1027100040380240007000400248016841F47001F6
:102720000160704788ED00E00148FFF78EBB0000B4
:1027300088030020F0B502681D4B1E4C9F031E4D00
:102740001E4E984207D0B84205D0A04203D0A842FE
:1027500001D0B04204D122F0700C4A6842EA0C0267
:10276000984210D0B8420ED0A0420CD0A8420AD055
:10277000B04208D0124CA04205D0124CA04202D068
:10278000114CA04203D122F44074CA6822434C6920
:1027900022F08002224302608A68C2620A68826272
:1027A000984201D10969016301214161F0BD000036
:1027B000000001400004004000080040000C004000
:1027C00000400140004401400048014070B504460B
:1027D00000680169E26821F44051114301612169F7
:1027E000A068E26908436169114308432168CA6827
:1027F00049F20C639A430243CA6020684169A269A6
:1028000021F440711143416131492068884202D06E
:102810003049884202D1FFF7BBF801E0FFF7A8F882
:10282000E2690023192164253226B2F5004F62685F
:1028300028D0A0FB0101930F9200FDF785FD014612
:10284000B0FBF5F06FF01802504301EB800006EB8F
:102850000010B0FBF5F000F0F002B1FBF5F002EB78
:102860000012B1FBF5F06FF01803584301EB800044
:1028700006EB0010B0FBF5F000F00F0021681044EB
:10288000886070BDA0FB010192185B41FDF75CFD03
:102890000146B0FBF5F00201B1FBF5F06FF0180353
:1028A000584301EB800006EBC000B0FBF5F000F0F0
:1028B000F80002EB4002B1FBF5F0584301EB800059
:1028C00006EBC000B0FBF5F000F00700D6E7000013
:1028D00000100140001401402DE9F04198461746D0
:1028E0000E460446069D27E0681C25D02DB1FEF754
:1028F0002DFCA0EB0800A8421ED920680C3050E83F
:10290000001F21F4D07140E80012002AF5D12068A0
:10291000143050E8001F21F0010140E80012002AA5
:10292000F5D1202084F83D0084F83E00002084F892
:102930003C000320BDE8F0812068006836EA000012
:1029400004D00020B842CFD00020F3E70120F9E7FF
:10295000FEE70907090E002804DB00F1E02080F8FB
:102960000014704700F00F0000F1E02080F8141D03
:102970007047000006496FF040020B681A600B6850
:10298000C2B25A6009680A68D2435206FBD4704743
:10299000440300201CB50C4606236A46282100F09B
:1029A00009F99DF8011021809DF8002002EB01211A
:1029B00021809DF8031061809DF8022002EB012127
:1029C00061809DF80510A1809DF8042002EB012193
:1029D000A1801CBD38B50C46054601236A4621215D
:1029E00000F0E8F800280BD19DF80000012364F303
:1029F000C3008DF800006A462121284600F005F941
:102A000038BD7CB50C46054601236A46202100F0FE
:102A1000D1F8002822D19DF80000012364F30710AB
:102A20008DF800006A462021284600F0EEF80028C4
:102A300014D1012301AA2221284600F0BBF8002866
:102A40000CD19DF80400210961F301008DF8040008
:102A5000012301AA2221284600F0D7F87CBD0123DA
:102A60000A460F2100F0A6B838B50C4605460123EA
:102A70006A46252100F09EF800280BD19DF8000041
:102A8000012364F387108DF800006A46252128464B
:102A900000F0BBF838BD7CB50C46054601236A46FC
:102AA000252100F087F8002822D19DF80000210997
:102AB00061F3C3008DF8000001236A4625212846F2
:102AC00000F0A3F8002813D1012301AA3F212846D2
:102AD00000F070F800280BD19DF80400012364F386
:102AE00004108DF8040001AA3F21284600F08DF85B
:102AF0007CBD38B50C4601236A46272100F05AF800
:102B00009DF8001001F00101217038BD00EE100A9F
:102B1000DFED030AB8EEC00A20EE200A704700007D
:102B200023DB793D38B50C46054601236A4625214D
:102B300000F040F800280BD19DF80000012364F359
:102B400005108DF800006A462521284600F05DF842
:102B500038BD7CB50C46054601236A46202100F0AD
:102B600029F8002825D19DF80000A10861F3830011
:102B700064F301008DF8000001236A4620212846F5
:102B800000F043F8002814D1012301AA252128468A
:102B900000F010F800280CD19DF80400210961F321
:102BA00082008DF80400012301AA2521284600F0A7
:102BB0002CF87CBD30B4C46845682046AC4630BCB7
:102BC000604738B50C4601236A462121FFF7F2FF22
:102BD0009DF80010C1F38011217038BD38B50C4646
:102BE000054601236A462121FFF7E4FF00280BD1A7
:102BF0009DF80000012364F386108DF800006A46FA
:102C00002121284600F001F838BD30B4C4680568B9
:102C10002046AC4630BC604786B0FEF733FDFFF778
:102C200033FDFFF78DFCFFF7F7FCFFF7D5FC3C48C1
:102C300000903C4801903C4803901420FEF776F940
:102C40003A496846FFF70BFF384C207844280DD0EE
:102C500037A0FDF7F1FB3B4C4FF4FA7520212046DD
:102C6000FEF766FA2846FEF761F9F7E701216846A4
:102C7000FFF7B4FF2D496846491CFFF7A2FF6078B3
:102C80000028F7D101216846FFF7A4FE002168461D
:102C9000FFF748FF00216846FFF7FDFE0121684667
:102CA000FFF7E2FE14216846FFF753FF082168464C
:102CB000FFF7A7FEFFF730FC00F055F804A96846BF
:102CC000FFF717FF9DF8100028B30020C4F802009A
:102CD0001649E080891C6846FFF75CFE134EB61C5F
:102CE000B6F90000FFF712FF174D85ED000AB6F99F
:102CF0000200FFF70BFF85ED010AB6F90400FFF7AC
:102D000005FF85ED020AB0EE401A95ED010AF0EEDE
:102D1000400AFEF7E3F83220FEF708F9CEE700009C
:102D2000DD2D0008C52D0008F00200200000002065
:102D3000CEB4BBF1C8A1B5BDC9E8B1B8B5D8D6B756
:102D4000000000000000024090000020014600202A
:102D5000842900D0C81C704710B500B9012000F0CC
:102D600045FB002010BD10B500F066FB002010BD33
:102D70007FB50D4604464169B0F9080081B1A169EB
:102D800071B1FFF7E3FFD4E905128DE80700D4E93C
:102D900000102B46226900F062FC039004B070BD65
:102DA000FFF7D4FF03A9CDE90001208A2B4682B2A8
:102DB000D4E9001000F026FC012801D00020EDE746
:102DC0000398EBE73EB54FF47A748DE81C000A4691
:102DD00001233321FEF784FA00203EBD3EB54FF4B7
:102DE0007A748DE81C000A4601233321FEF774FB38
:102DF00000203EBD2DE9F041184C0F460546E6681F
:102E00002068001D00F02AFA38B9206890F82C10CC
:102E100001208840216981432161681C07D137B1B5
:102E20002168BDE8F0410E48091D00F05BBA20683A
:102E30003544B5424560216805D2A06BBDE8F0413C
:102E4000091D00F037BA606B091D00F033FAA06A63
:102E5000854200D2A562BDE8F08100001C00002080
:102E6000AC0400202DE9F041054600F047FA2E4C55
:102E7000A068401CA06020682C4F10B1606940B36E
:102E80002DE02560A068012829D1002606EB8600E8
:102E900007EB800000F000FA761C072EF6D32348DB
:102EA0008C3000F0F9F92148A03000F0F5F91F4806
:102EB000B43000F0F1F91D48C83000F0EDF91B48BE
:102EC000DC3000F0E9F919488C3060631430A063FD
:102ED00005E02068E96AC06A884200D82560606A17
:102EE000401C6062E96A0120226988401043206129
:102EF00001EB810007EB8000291D00F0F3F900F0E1
:102F00001DFA606900280CD02068E96AC06A88420E
:102F100007D207494FF080500860BFF34F8FBFF3CF
:102F20006F8FBDE8F08100001C000020D00300205E
:102F300004ED00E010B5044690F8510058B10128A6
:102F40000CD002280FD0502080F31188BFF34F8F90
:102F5000BFF36F8FFEE7206B00F004FA2046BDE858
:102F6000104000F0FFB910BD10484FF470514207F7
:102F700006D0C01D0D4920F00700411AC1F570515F
:102F80000B4A00230144C2E900030839183A21F032
:102F9000070111604B600B600B1AC0E900139360CE
:102FA0004FF000405360506170470000C0040020A3
:102FB00070000020144E154CA6F1C8074FF0805841
:102FC000DFF84C9012E000BF00F098F9F068C56897
:102FD000281D00F043F9A068401EA0606068401EF4
:102FE000606000F0ABF92846FFF7A4FF6068002896
:102FF000EAD138680128F9D9C9F80080BFF34F8FAA
:10300000BFF36F8FF2E70000980400201C0000203F
:1030100004ED00E02DE9F0479A46DDE90984814698
:103020006FF00303206B03EB82021044089E20F034
:103030000707780707D0502080F31188BFF34F8F20
:10304000BFF36F8FFEE7002561B1002023180A5CF3
:1030500083F834200A5C12B1401C1028F6D384F89F
:10306000435001E084F83450072E00D30626E66270
:10307000C4E91165201D00F01AF904F1180000F0F0
:1030800016F92461C6F107006462A061E56484F862
:10309000505052464946384600F0C0F82060B8F11A
:1030A000000F01D0C8F80040BDE8F08730B51149E5
:1030B00000E011460A688242FBD34B685C188442E8
:1030C00003D1406818444860084643681C1894427D
:1030D00009D1084C183C2468A24209D052681A440D
:1030E00042600A6812680260814200D0086030BD08
:1030F0000460F9E7700000200648416B096829B1B7
:10310000416BC968C9684968816270474FF0FF31F7
:10311000FAE700001C00002008484068401C4FF0FF
:10312000500080F3118804D0BFF34F8FBFF36F8F2F
:10313000FEE7BFF34F8FBFF36F8FFEE778000020ED
:103140002DE9F0410546002700F0ACF9324E306819
:1031500008B9FFF709FF706905424ED1C5B30835BC
:1031600068070ED005F00700C0F1080005446807A5
:1031700007D0502080F31188BFF34F8FBFF36F8FBC
:10318000FEE72DB37068854237D8234818300146D2
:103190000C6801E020460C466168A94202D2216811
:1031A0000029F7D131688C4227D007682168016077
:1031B00060680837411B10290FD96019420708D0F1
:1031C000502080F31188BFF34F8FBFF36F8FFEE75E
:1031D00013E041606560FFF769FF61687068401A3D
:1031E0007060B268904200D2B06070690143002004
:1031F000C4E90001F068401CF06000F0C1FA7807F3
:1032000007D0502080F31188BFF34F8FBFF36F8F2B
:10321000FEE73846BDE8F0815800002010B5031FD6
:103220004FF080741C601B1F21F001011960191FF1
:10323000044B0B6014390A60091F6FF00202443816
:103240000A6010BD193100080A4601464FF47A732E
:103250000148FEF71FBF000044030020D0E90132FF
:1032600001699A60D0E901235A604A68824201D11B
:1032700082684A60002202610868401E086008688F
:1032800070470000034B036003F154000860802086
:10329000106070479C00002000F108014FF0FF32E1
:1032A000C0E90112C1600161002101607047002185
:1032B0000161704730B50B685A1C02D000F108025A
:1032C00002E0026904E02246546825689D42FAD96A
:1032D00053684B6099608A60516008610168491CBD
:1032E000016030BD42684A6093688B6093685960A2
:1032F000916008610168491C01607047502080F3AB
:103300001188BFF34F8FBFF36F8F0A494868401C85
:10331000486001280CD10848006810F0FF0F07D062
:10332000502080F31188BFF34F8FBFF36F8FFEE7FC
:10333000704700007800002004ED00E0084948686C
:1033400028B1401E486001D180F311887047502099
:1033500080F31188BFF34F8FBFF36F8FFEE700003C
:103360007800002070B500282AD0164DA0F108047E
:1033700060686969084207D1502080F31188BFF363
:103380004F8FBFF36F8FFEE722683AB1502080F372
:103390001188BFF34F8FBFF36F8FFEE788436060E4
:1033A00000F080F860686968084468602046FFF7AC
:1033B0007DFE2869401C2861BDE8704000F0E0B93E
:1033C00070BD0000580000204FF0E0200021016196
:1033D000816105494FF47A720968B1FBF2F1491E27
:1033E00041610721016170471800002010B50200FB
:1033F00014D00F48006B38B1502080F31188BFF310
:103400004F8FBFF36F8FFEE700F04CF8002110469E
:10341000FFF7F0FC00F0B4F9002807D105494FF0A0
:1034200080500860BFF34F8FBFF36F8F10BD000057
:103430001C00002004ED00E010B586B000240394C9
:1034400005AA04A903A80494FFF71CFFDDE9030102
:103450000094CDE9011000230EA11048059A00F058
:10346000FEF80F490028C86211D0502080F311885F
:10347000BFF34F8FBFF36F8F4FF0FF308862012093
:103480004861CC6006B0BDE8104000F041B806B01D
:1034900010BD000049444C4500000000B52F000855
:1034A0001C0000200248016B491C016370470000AA
:1034B0001C0000201448016B11B10121C16170474B
:1034C0000021C1610169B1FA81F1C1F11F0101EB74
:1034D00081020E4951F822306BB101EB820101F1FA
:1034E00008034A6852684A609A4201D152684A60A9
:1034F000D16801607047502080F31188BFF34F8F6F
:10350000BFF36F8FFEE700001C000020D0030020F7
:103510001CB537480168374A914207D1502080F3E3
:103520001188BFF34F8FBFF36F8FFEE700683149FB
:10353000491E884207D1502080F31188BFF34F8F76
:10354000BFF36F8FFEE72C4908780190FF200870C9
:1035500008788DF800009DF800009DF8002000F02C
:10356000F000904207D0502080F31188BFF34F8FB6
:10357000BFF36F8FFEE79DF80000204C00F0500075
:1035800020700720A06005E09DF8002052008DF813
:103590000020401E9DF800201206F5D4A0600328EC
:1035A00007D0502080F31188BFF34F8FBFF36F8F88
:1035B000FEE74FF44070A060019808700C4820307E
:1035C000016841F470010160016841F070410160DF
:1035D000FFF7FAFE00206060FCF75AFE0848016819
:1035E00041F040410160FCF73FFE00201CBD00009F
:1035F00000ED00E071C20F4100E400E0780000201F
:1036000034EF00E02DE9FF5F8346DDE90E87994640
:1036100016468A469000FFF793FD05001CD0542003
:10362000FFF78EFD040014D00020256384F85100BC
:10363000CDE90240CDE900874B4632465146584617
:10364000FFF7E8FC2046FFF70DFC012004B0BDE8C1
:10365000F09F2846FFF786FE4FF0FF30F6E7F0B503
:1036600085B0DDE90B640A9DA6B1DCB15427009753
:103670002663022684F85160002604AFCDE9024695
:10368000CDE90057FFF7C6FC2046FFF7EBFB049897
:1036900005B0F0BD502080F31188BFF34F8FBFF30A
:1036A0006F8FFEE7502080F31188BFF34F8FBFF379
:1036B0006F8FFEE72DE9F0412F4C0026206B28B1DB
:1036C000A069401CA0613046BDE8F081E5686D1C32
:1036D000E56013D1606B006838B1502080F3118829
:1036E000BFF34F8FBFF36F8FFEE7606BA16B61631A
:1036F000A063206A401C2062FFF7FEFCA06ADFF88E
:103700007C80854209D3606B0068A0B1606BC068A3
:10371000C7687868854211D2A0622068C06A00EB51
:10372000800158F82100012800D90126E06900280D
:10373000C9D00126C7E74FF0FF30EDE7381DFFF78E
:103740008DFDB86A18B107F11800FFF787FDF96A17
:103750000120226988401043206101EB810108EBC0
:103760008100391DFFF7BEFDF86A2168C96A8842E9
:10377000C9D30126C7E700001C000020D0030020A9
:103780002DE9F0472C4D00242746286B38B1FFF770
:10379000B5FD286B401E2863286B40B146E05020E1
:1037A00080F31188BFF34F8FBFF36F8FFEE7A968D7
:1037B000224E0120D1B3A6F1B40980463068E8B1A9
:1037C000F068C46804F11800FFF748FD201DFFF7FA
:1037D00045FDE06A2A6908FA00F11143296100EB0E
:1037E000800109EB8100211DFFF77CFDE06A29685B
:1037F000C96A8842E2D3C5F81C80DFE70CB1FFF745
:103800007BFCAC6944B14646FFF754FF00B1EE6162
:10381000641EF9D10020A861E86938B10849012780
:1038200038070860BFF34F8FBFF36F8FFFF786FD38
:103830003846BDE8F08700001C000020840400200A
:1038400004ED00E04FF04070E1EE100A7047000018
:103850009038000855260008000000000000000015
:1038600080000000000000000000000000000000D8
:103870000000000001020304060708090000000020
:10388000010203043A7474003A7474003A747400C8
:1038900064656661756C745461736B00BC380008B4
:1038A0000000002090000000D40100084C390008FE
:1038B00090000020B8470000F00100080000000060
:1038C00000000000000000000100000010000000E7
:1038D000000000000024F4000000000000000000D0
:1038E00000000000000000000000000000000000D8
:1038F00000000000000000000000000000000000C8
:1039000000000000000000000000000000000000B7
:1039100000000000000000000000000000000000A7
:103920000000000000000000000000000000000097
:103930000000000000000000AAAAAAAA00000000DF
:0C3940000000000000000000000000007B
:040000050800019955
:00000001FF
